{
  "contractName": "Ballot",
  "abi": [
    {
      "inputs": [
        {
          "internalType": "uint256",
          "name": "numProposals",
          "type": "uint256"
        }
      ],
      "payable": false,
      "stateMutability": "nonpayable",
      "type": "constructor"
    },
    {
      "constant": true,
      "inputs": [],
      "name": "state",
      "outputs": [
        {
          "internalType": "enum Ballot.Phase",
          "name": "",
          "type": "uint8"
        }
      ],
      "payable": false,
      "stateMutability": "view",
      "type": "function"
    },
    {
      "constant": false,
      "inputs": [
        {
          "internalType": "enum Ballot.Phase",
          "name": "x",
          "type": "uint8"
        }
      ],
      "name": "changeState",
      "outputs": [],
      "payable": false,
      "stateMutability": "nonpayable",
      "type": "function"
    },
    {
      "constant": false,
      "inputs": [
        {
          "internalType": "address",
          "name": "voter",
          "type": "address"
        }
      ],
      "name": "register",
      "outputs": [],
      "payable": false,
      "stateMutability": "nonpayable",
      "type": "function"
    },
    {
      "constant": false,
      "inputs": [
        {
          "internalType": "uint256",
          "name": "toProposal",
          "type": "uint256"
        }
      ],
      "name": "vote",
      "outputs": [],
      "payable": false,
      "stateMutability": "nonpayable",
      "type": "function"
    },
    {
      "constant": true,
      "inputs": [],
      "name": "reqWinner",
      "outputs": [
        {
          "internalType": "uint256",
          "name": "winningProposal",
          "type": "uint256"
        }
      ],
      "payable": false,
      "stateMutability": "view",
      "type": "function"
    },
    {
      "constant": true,
      "inputs": [
        {
          "internalType": "address",
          "name": "voter",
          "type": "address"
        }
      ],
      "name": "who",
      "outputs": [
        {
          "internalType": "bool",
          "name": "chairpersonOrNot",
          "type": "bool"
        }
      ],
      "payable": false,
      "stateMutability": "view",
      "type": "function"
    }
  ],
  "bytecode": "0x60806040526000600360006101000a81548160ff0219169083600381111561002357fe5b021790555034801561003457600080fd5b5060405161082e38038061082e8339818101604052602081101561005757600080fd5b8101908080519060200190929190505050336000806101000a81548173ffffffffffffffffffffffffffffffffffffffff021916908373ffffffffffffffffffffffffffffffffffffffff1602179055506002600160008060009054906101000a900473ffffffffffffffffffffffffffffffffffffffff1673ffffffffffffffffffffffffffffffffffffffff1673ffffffffffffffffffffffffffffffffffffffff1681526020019081526020016000206000018190555060008090505b8181101561017257600260405180602001604052806000815250908060018154018082558091505090600182039060005260206000200160009091929091909150600082015181600001555050508080600101915050610117565b50506106ab806101836000396000f3fe608060405234801561001057600080fd5b50600436106100625760003560e01c80630121b93f14610067578063268f1153146100955780634420e486146100c6578063508b30c91461010a5780636ac3162c14610128578063c19d93fb14610184575b600080fd5b6100936004803603602081101561007d57600080fd5b81019080803590602001909291905050506101b0565b005b6100c4600480360360208110156100ab57600080fd5b81019080803560ff1690602001909291905050506102b2565b005b610108600480360360208110156100dc57600080fd5b81019080803573ffffffffffffffffffffffffffffffffffffffff169060200190929190505050610363565b005b6101126104ee565b6040518082815260200191505060405180910390f35b61016a6004803603602081101561013e57600080fd5b81019080803573ffffffffffffffffffffffffffffffffffffffff169060200190929190505050610591565b604051808215151515815260200191505060405180910390f35b61018c610640565b6040518082600381111561019c57fe5b60ff16815260200191505060405180910390f35b60028060038111156101be57fe5b600360009054906101000a900460ff1660038111156101d957fe5b146101e357600080fd5b6101eb610653565b600160003373ffffffffffffffffffffffffffffffffffffffff1673ffffffffffffffffffffffffffffffffffffffff168152602001908152602001600020604051806060016040529081600082015481526020016001820160009054906101000a900460ff16151515158152602001600282015481525050905060018160200190151590811515815250508281604001818152505080600001516002848154811061029357fe5b9060005260206000200160000160008282540192505081905550505050565b6000809054906101000a900473ffffffffffffffffffffffffffffffffffffffff1673ffffffffffffffffffffffffffffffffffffffff163373ffffffffffffffffffffffffffffffffffffffff161461030b57600080fd5b600360009054906101000a900460ff16600381111561032657fe5b81600381111561033257fe5b101561033d57600080fd5b80600360006101000a81548160ff0219169083600381111561035b57fe5b021790555050565b600180600381111561037157fe5b600360009054906101000a900460ff16600381111561038c57fe5b1461039657600080fd5b6000809054906101000a900473ffffffffffffffffffffffffffffffffffffffff1673ffffffffffffffffffffffffffffffffffffffff163373ffffffffffffffffffffffffffffffffffffffff1614158061043e5750600160008373ffffffffffffffffffffffffffffffffffffffff1673ffffffffffffffffffffffffffffffffffffffff16815260200190815260200160002060010160009054906101000a900460ff165b1561044857600080fd5b60018060008473ffffffffffffffffffffffffffffffffffffffff1673ffffffffffffffffffffffffffffffffffffffff168152602001908152602001600020600001819055506000600160008473ffffffffffffffffffffffffffffffffffffffff1673ffffffffffffffffffffffffffffffffffffffff16815260200190815260200160002060010160006101000a81548160ff0219169083151502179055505050565b600060038060038111156104fe57fe5b600360009054906101000a900460ff16600381111561051957fe5b1461052357600080fd5b600080905060008090505b60028054905081101561058b57836002828154811061054957fe5b9060005260206000200160000154111561057e576002818154811061056a57fe5b906000526020600020016000015491508093505b808060010191505061052e565b50505090565b60006002600160008473ffffffffffffffffffffffffffffffffffffffff1673ffffffffffffffffffffffffffffffffffffffff1681526020019081526020016000206000015414156105e7576001905061063b565b60018060008473ffffffffffffffffffffffffffffffffffffffff1673ffffffffffffffffffffffffffffffffffffffff16815260200190815260200160002060000154141561063a576000905061063b565b5b919050565b600360009054906101000a900460ff1681565b60405180606001604052806000815260200160001515815260200160008152509056fea265627a7a72315820a28674b11ab76df50c3106bb80eb64f61972706916d615943a1f24ebd19039be64736f6c63430005100032",
  "source": "// SPDX-License-Identifier: MIT\npragma solidity >=0.4.0;\n\ncontract Ballot{\n\n    struct Voter {\n        uint weight;\n        bool voted;\n        uint vote;\n    }\n\n    struct Proposal{\n        uint voteCount;\n    }\n\n    address chairperson;\n    mapping(address => Voter) voters;\n    Proposal[] proposals;\n\n    enum Phase {Init, Regs, Vote, Done}\n    Phase public state = Phase.Init;\n\n    modifier validPhase(Phase reqPhase){\n        require(state == reqPhase);\n        _;\n    }\n\n    // modifier onlyChair(){\n    //     require(msg.sender == chairperson);\n    //     _;\n    // }\n\n    // 데이터 요소 및 투표 단계 상태 초기화\n    constructor (uint numProposals) public {\n        chairperson = msg.sender;\n        voters[chairperson].weight = 2;\n        for (uint prop=0; prop < numProposals; prop++) {\n            proposals.push(Proposal(0));\n        }\n        // state = Phase.Regs;\n    }\n\n    function changeState(Phase x) public {\n        if (msg.sender != chairperson)  revert();\n        if (x < state)  revert();\n        // require (x > state);\n        state = x;\n    }\n    \n    function register(address voter) public validPhase(Phase.Regs) {\n        // require (!voters[voter].voted);\n        if (msg.sender != chairperson || voters[voter].voted)   revert();\n        voters[voter].weight = 1;\n        voters[voter].voted = false;\n    }\n\n    function vote(uint toProposal) public validPhase(Phase.Vote) {\n        Voter memory sender = voters[msg.sender];\n        // require (!sender.voted);\n        // require (toProposal < proposals.length);\n        sender.voted = true;\n        sender.vote = toProposal;\n        proposals[toProposal].voteCount += sender.weight;\n    }\n\n    // 읽기용 함수, 체인에 Tx를 기록하지지 않음\n    function reqWinner() public validPhase(Phase.Done) view returns (uint winningProposal) {\n        uint winningVoteCount = 0;\n        for (uint prop = 0; prop < proposals.length; prop++) {\n            if (proposals[prop].voteCount > winningProposal) {\n                winningVoteCount = proposals[prop].voteCount;\n                winningProposal = prop;\n            }\n        }\n        //assert(winningVoteCount >= 3);\n    }\n\n    // 해당 account가 의장(true)인지 일반투표자(false)인지 확인\n    function who(address voter) public view returns (bool chairpersonOrNot) {\n        if (voters[voter].weight == 2)   return true;\n        else if (voters[voter].weight == 1)  return false; \n    }\n}\n\n// BallotV3\n// Deploy: 0(Init), numProposals: 8, Deploy -chairperson accont\n// chairperson: only one account\n\n// changeState: 1 (Regs) -chairperson\n// register: other accounts -chairperson\n\n// changeState: 2 (Vote) -chairperson\n// vote: choose from 0 to 7(= numProposals-1) -other accounts\n\n// changeState: 3 (Done)\n// reqWinner -chairperson\n\n// 등록되지 않은 투표자(account)는 가중치(weight)가 0으로 처리되기 때문에 투표(vote)를 하더라도 결과(reqWinner)에 영향을 미치지 않음.",
  "sourcePath": "/Users/choiyounglee/Ballot-Dapp/ballot-contract/contracts/Ballot.sol",
  "compiler": {
    "name": "solc",
    "version": "0.5.16+commit.9c3226ce.Emscripten.clang"
  },
  "schemaVersion": "3.4.7",
  "updatedAt": "2022-05-02T00:31:48.807Z",
  "networkType": "ethereum",
  "devdoc": {
    "methods": {}
  },
  "userdoc": {
    "methods": {}
  }
}